{
    "contractName": "Market",
    "abi": [
        {
            "inputs": [],
            "stateMutability": "nonpayable",
            "type": "constructor"
        },
        {
            "anonymous": false,
            "inputs": [
                {
                    "indexed": true,
                    "internalType": "uint256",
                    "name": "itemId",
                    "type": "uint256"
                },
                {
                    "indexed": true,
                    "internalType": "address",
                    "name": "nftContract",
                    "type": "address"
                },
                {
                    "indexed": true,
                    "internalType": "uint256",
                    "name": "tokenId",
                    "type": "uint256"
                },
                {
                    "indexed": false,
                    "internalType": "address",
                    "name": "seller",
                    "type": "address"
                },
                {
                    "indexed": false,
                    "internalType": "address",
                    "name": "owner",
                    "type": "address"
                },
                {
                    "indexed": false,
                    "internalType": "uint256",
                    "name": "price",
                    "type": "uint256"
                },
                {
                    "indexed": false,
                    "internalType": "bool",
                    "name": "sold",
                    "type": "bool"
                }
            ],
            "name": "MarketItemCreated",
            "type": "event"
        },
        {
            "inputs": [
                {
                    "internalType": "address",
                    "name": "nftContract",
                    "type": "address"
                },
                {
                    "internalType": "uint256",
                    "name": "tokenId",
                    "type": "uint256"
                },
                {
                    "internalType": "uint256",
                    "name": "price",
                    "type": "uint256"
                }
            ],
            "name": "createMarketItem",
            "outputs": [],
            "stateMutability": "payable",
            "type": "function"
        },
        {
            "inputs": [
                {
                    "internalType": "address",
                    "name": "nftContract",
                    "type": "address"
                },
                {
                    "internalType": "uint256",
                    "name": "itemId",
                    "type": "uint256"
                }
            ],
            "name": "createMarketSale",
            "outputs": [],
            "stateMutability": "payable",
            "type": "function"
        },
        {
            "inputs": [],
            "name": "fetchItemsCreated",
            "outputs": [
                {
                    "components": [
                        {
                            "internalType": "uint256",
                            "name": "itemId",
                            "type": "uint256"
                        },
                        {
                            "internalType": "address",
                            "name": "nftContract",
                            "type": "address"
                        },
                        {
                            "internalType": "uint256",
                            "name": "tokenId",
                            "type": "uint256"
                        },
                        {
                            "internalType": "address payable",
                            "name": "seller",
                            "type": "address"
                        },
                        {
                            "internalType": "address payable",
                            "name": "owner",
                            "type": "address"
                        },
                        {
                            "internalType": "uint256",
                            "name": "price",
                            "type": "uint256"
                        },
                        {
                            "internalType": "bool",
                            "name": "sold",
                            "type": "bool"
                        }
                    ],
                    "internalType": "struct Market.MarketItem[]",
                    "name": "",
                    "type": "tuple[]"
                }
            ],
            "stateMutability": "view",
            "type": "function"
        },
        {
            "inputs": [],
            "name": "fetchMarketItems",
            "outputs": [
                {
                    "components": [
                        {
                            "internalType": "uint256",
                            "name": "itemId",
                            "type": "uint256"
                        },
                        {
                            "internalType": "address",
                            "name": "nftContract",
                            "type": "address"
                        },
                        {
                            "internalType": "uint256",
                            "name": "tokenId",
                            "type": "uint256"
                        },
                        {
                            "internalType": "address payable",
                            "name": "seller",
                            "type": "address"
                        },
                        {
                            "internalType": "address payable",
                            "name": "owner",
                            "type": "address"
                        },
                        {
                            "internalType": "uint256",
                            "name": "price",
                            "type": "uint256"
                        },
                        {
                            "internalType": "bool",
                            "name": "sold",
                            "type": "bool"
                        }
                    ],
                    "internalType": "struct Market.MarketItem[]",
                    "name": "",
                    "type": "tuple[]"
                }
            ],
            "stateMutability": "view",
            "type": "function"
        },
        {
            "inputs": [],
            "name": "fetchMyNFTs",
            "outputs": [
                {
                    "components": [
                        {
                            "internalType": "uint256",
                            "name": "itemId",
                            "type": "uint256"
                        },
                        {
                            "internalType": "address",
                            "name": "nftContract",
                            "type": "address"
                        },
                        {
                            "internalType": "uint256",
                            "name": "tokenId",
                            "type": "uint256"
                        },
                        {
                            "internalType": "address payable",
                            "name": "seller",
                            "type": "address"
                        },
                        {
                            "internalType": "address payable",
                            "name": "owner",
                            "type": "address"
                        },
                        {
                            "internalType": "uint256",
                            "name": "price",
                            "type": "uint256"
                        },
                        {
                            "internalType": "bool",
                            "name": "sold",
                            "type": "bool"
                        }
                    ],
                    "internalType": "struct Market.MarketItem[]",
                    "name": "",
                    "type": "tuple[]"
                }
            ],
            "stateMutability": "view",
            "type": "function"
        }
    ],
    "bytecode": "60806040526658d15e1762800060045534801561001b57600080fd5b506001600055600380546001600160a01b03191633179055610cb3806100426000396000f3fe60806040526004361061004a5760003560e01c80630f08efe01461004f578063202e37401461007a57806358eb2df51461008f578063c23b139e146100a4578063f064c32e146100b7575b600080fd5b34801561005b57600080fd5b506100646100cc565b6040516100719190610ae4565b60405180910390f35b34801561008657600080fd5b50610064610258565b6100a261009d366004610b94565b610422565b005b6100a26100b2366004610bc7565b6106c2565b3480156100c357600080fd5b506100646108de565b606060006100d960015490565b905060006100e660025490565b6001546100f39190610c07565b90506000808267ffffffffffffffff81111561011157610111610c1e565b60405190808252806020026020018201604052801561014a57816020015b610137610aa8565b81526020019060019003908161012f5790505b50905060005b8481101561024f576000600581610168846001610c34565b81526020810191909152604001600020600401546001600160a01b0316141561023d576000610198826001610c34565b600081815260056020818152604092839020835160e0810185528154815260018201546001600160a01b0390811693820193909352600282015494810194909452600381015482166060850152600481015490911660808401529081015460a0830152600681015460ff16151560c083015285519293509185908790811061022257610222610c4c565b6020908102919091010152610238600186610c34565b945050505b8061024781610c62565b915050610150565b50949350505050565b6060600061026560015490565b905060008060005b838110156102c8573360056000610285846001610c34565b81526020810191909152604001600020600401546001600160a01b031614156102b6576102b3600184610c34565b92505b806102c081610c62565b91505061026d565b5060008267ffffffffffffffff8111156102e4576102e4610c1e565b60405190808252806020026020018201604052801561031d57816020015b61030a610aa8565b8152602001906001900390816103025790505b50905060005b8481101561024f57336005600061033b846001610c34565b81526020810191909152604001600020600401546001600160a01b0316141561041057600061036b826001610c34565b600081815260056020818152604092839020835160e0810185528154815260018201546001600160a01b0390811693820193909352600282015494810194909452600381015482166060850152600481015490911660808401529081015460a0830152600681015460ff16151560c08301528551929350918590879081106103f5576103f5610c4c565b602090810291909101015261040b600186610c34565b945050505b8061041a81610c62565b915050610323565b6002600054141561047a5760405162461bcd60e51b815260206004820152601f60248201527f5265656e7472616e637947756172643a207265656e7472616e742063616c6c0060448201526064015b60405180910390fd5b6002600055806104cc5760405162461bcd60e51b815260206004820152601c60248201527f5072696365206d757374206265206174206c65617374203120776569000000006044820152606401610471565b60045434146105295760405162461bcd60e51b8152602060048201526024808201527f5072696365206d75737420626520657175616c20746f206c697374696e6720706044820152637269636560e01b6064820152608401610471565b610537600180546001019055565b600061054260015490565b6040805160e0810182528281526001600160a01b0387811660208084018281528486018a8152336060870181815260006080890181815260a08a018e815260c08b018381528d8452600598899052928c90209a518b55955160018b018054918b166001600160a01b0319928316179055945160028b0155915160038a018054918a1691861691909117905590516004808a01805492909916919094161790965591519286019290925592516006909401805494151560ff199095169490941790935592516323b872dd60e01b81529182015230602482015260448101869052919250906323b872dd90606401600060405180830381600087803b15801561064857600080fd5b505af115801561065c573d6000803e3d6000fd5b505060408051338152600060208201819052818301879052606082015290518693506001600160a01b038816925084917f045dfa01dcba2b36aba1d3dc4a874f4b0c5d2fbeb8d2c4b34a7d88c8d8f929d1919081900360800190a4505060016000555050565b600260005414156107155760405162461bcd60e51b815260206004820152601f60248201527f5265656e7472616e637947756172643a207265656e7472616e742063616c6c006044820152606401610471565b60026000818155828152600560208190526040909120908101549101543482146107a9576040805162461bcd60e51b81526020600482015260248101919091527f506c65617365207375626d6974207468652061736b696e67207072696365206960448201527f6e206f7264657220746f20636f6d706c657465207468652070757263686173656064820152608401610471565b6000838152600560205260408082206003015490516001600160a01b03909116913480156108fc02929091818181858888f193505050501580156107f1573d6000803e3d6000fd5b506040516323b872dd60e01b8152306004820152336024820152604481018290526001600160a01b038516906323b872dd90606401600060405180830381600087803b15801561084057600080fd5b505af1158015610854573d6000803e3d6000fd5b50505060008481526005602052604090206004810180546001600160a01b03191633179055600601805460ff1916600117905550610896600280546001019055565b6003546004546040516001600160a01b039092169181156108fc0291906000818181858888f193505050501580156108d2573d6000803e3d6000fd5b50506001600055505050565b606060006108eb60015490565b905060008060005b8381101561094e57336005600061090b846001610c34565b81526020810191909152604001600020600301546001600160a01b0316141561093c57610939600184610c34565b92505b8061094681610c62565b9150506108f3565b5060008267ffffffffffffffff81111561096a5761096a610c1e565b6040519080825280602002602001820160405280156109a357816020015b610990610aa8565b8152602001906001900390816109885790505b50905060005b8481101561024f5733600560006109c1846001610c34565b81526020810191909152604001600020600301546001600160a01b03161415610a965760006109f1826001610c34565b600081815260056020818152604092839020835160e0810185528154815260018201546001600160a01b0390811693820193909352600282015494810194909452600381015482166060850152600481015490911660808401529081015460a0830152600681015460ff16151560c0830152855192935091859087908110610a7b57610a7b610c4c565b6020908102919091010152610a91600186610c34565b945050505b80610aa081610c62565b9150506109a9565b6040805160e081018252600080825260208201819052918101829052606081018290526080810182905260a0810182905260c081019190915290565b602080825282518282018190526000919060409081850190868401855b82811015610b6b57815180518552868101516001600160a01b039081168887015286820151878701526060808301518216908701526080808301519091169086015260a0808201519086015260c09081015115159085015260e09093019290850190600101610b01565b5091979650505050505050565b80356001600160a01b0381168114610b8f57600080fd5b919050565b600080600060608486031215610ba957600080fd5b610bb284610b78565b95602085013595506040909401359392505050565b60008060408385031215610bda57600080fd5b610be383610b78565b946020939093013593505050565b634e487b7160e01b600052601160045260246000fd5b600082821015610c1957610c19610bf1565b500390565b634e487b7160e01b600052604160045260246000fd5b60008219821115610c4757610c47610bf1565b500190565b634e487b7160e01b600052603260045260246000fd5b6000600019821415610c7657610c76610bf1565b506001019056fea2646970667358221220d5c00eac09d3676d9989d22dd1e65a025c62112a7dd7e46e860e02e0f2cde8ba64736f6c634300080b0033",
    "sourcePath": "/home/vorcigernix/dev/comodi-hackathon/contracts/Market.sol",
    "compiler": {
        "name": "solc",
        "version": "0.8.11+commit.d7f03943"
    },
    "functionHashes": {
        "createMarketItem(address,uint256,uint256)": "58eb2df5",
        "createMarketSale(address,uint256)": "c23b139e",
        "fetchItemsCreated()": "f064c32e",
        "fetchMarketItems()": "0f08efe0",
        "fetchMyNFTs()": "202e3740"
    },
    "gasEstimates": {
        "creation": {
            "codeDepositCost": "650200",
            "executionCost": "69130",
            "totalCost": "719330"
        },
        "external": {
            "createMarketItem(address,uint256,uint256)": "infinite",
            "createMarketSale(address,uint256)": "infinite",
            "fetchItemsCreated()": "infinite",
            "fetchMarketItems()": "infinite",
            "fetchMyNFTs()": "infinite"
        }
    }
}