{
  "_format": "hh-sol-artifact-1",
  "contractName": "CNft",
  "sourceName": "contracts/CNft.sol",
  "abi": [
    {
      "inputs": [
        {
          "internalType": "address",
          "name": "marketplaceAddress",
          "type": "address"
        }
      ],
      "stateMutability": "nonpayable",
      "type": "constructor"
    },
    {
      "anonymous": false,
      "inputs": [
        {
          "indexed": true,
          "internalType": "address",
          "name": "owner",
          "type": "address"
        },
        {
          "indexed": true,
          "internalType": "address",
          "name": "approved",
          "type": "address"
        },
        {
          "indexed": true,
          "internalType": "uint256",
          "name": "tokenId",
          "type": "uint256"
        }
      ],
      "name": "Approval",
      "type": "event"
    },
    {
      "anonymous": false,
      "inputs": [
        {
          "indexed": true,
          "internalType": "address",
          "name": "owner",
          "type": "address"
        },
        {
          "indexed": true,
          "internalType": "address",
          "name": "operator",
          "type": "address"
        },
        {
          "indexed": false,
          "internalType": "bool",
          "name": "approved",
          "type": "bool"
        }
      ],
      "name": "ApprovalForAll",
      "type": "event"
    },
    {
      "anonymous": false,
      "inputs": [
        {
          "indexed": true,
          "internalType": "address",
          "name": "previousOwner",
          "type": "address"
        },
        {
          "indexed": true,
          "internalType": "address",
          "name": "newOwner",
          "type": "address"
        }
      ],
      "name": "OwnershipTransferred",
      "type": "event"
    },
    {
      "anonymous": false,
      "inputs": [
        {
          "indexed": true,
          "internalType": "address",
          "name": "from",
          "type": "address"
        },
        {
          "indexed": true,
          "internalType": "address",
          "name": "to",
          "type": "address"
        },
        {
          "indexed": true,
          "internalType": "uint256",
          "name": "tokenId",
          "type": "uint256"
        }
      ],
      "name": "Transfer",
      "type": "event"
    },
    {
      "inputs": [
        {
          "internalType": "address",
          "name": "to",
          "type": "address"
        },
        {
          "internalType": "uint256",
          "name": "tokenId",
          "type": "uint256"
        }
      ],
      "name": "approve",
      "outputs": [],
      "stateMutability": "nonpayable",
      "type": "function"
    },
    {
      "inputs": [
        {
          "internalType": "address",
          "name": "owner",
          "type": "address"
        }
      ],
      "name": "balanceOf",
      "outputs": [
        {
          "internalType": "uint256",
          "name": "",
          "type": "uint256"
        }
      ],
      "stateMutability": "view",
      "type": "function"
    },
    {
      "inputs": [
        {
          "internalType": "uint256",
          "name": "tokenId",
          "type": "uint256"
        }
      ],
      "name": "burn",
      "outputs": [],
      "stateMutability": "nonpayable",
      "type": "function"
    },
    {
      "inputs": [
        {
          "internalType": "uint256",
          "name": "tokenId",
          "type": "uint256"
        }
      ],
      "name": "getApproved",
      "outputs": [
        {
          "internalType": "address",
          "name": "",
          "type": "address"
        }
      ],
      "stateMutability": "view",
      "type": "function"
    },
    {
      "inputs": [
        {
          "internalType": "address",
          "name": "owner",
          "type": "address"
        },
        {
          "internalType": "address",
          "name": "operator",
          "type": "address"
        }
      ],
      "name": "isApprovedForAll",
      "outputs": [
        {
          "internalType": "bool",
          "name": "",
          "type": "bool"
        }
      ],
      "stateMutability": "view",
      "type": "function"
    },
    {
      "inputs": [],
      "name": "name",
      "outputs": [
        {
          "internalType": "string",
          "name": "",
          "type": "string"
        }
      ],
      "stateMutability": "view",
      "type": "function"
    },
    {
      "inputs": [],
      "name": "owner",
      "outputs": [
        {
          "internalType": "address",
          "name": "",
          "type": "address"
        }
      ],
      "stateMutability": "view",
      "type": "function"
    },
    {
      "inputs": [
        {
          "internalType": "uint256",
          "name": "tokenId",
          "type": "uint256"
        }
      ],
      "name": "ownerOf",
      "outputs": [
        {
          "internalType": "address",
          "name": "",
          "type": "address"
        }
      ],
      "stateMutability": "view",
      "type": "function"
    },
    {
      "inputs": [],
      "name": "renounceOwnership",
      "outputs": [],
      "stateMutability": "nonpayable",
      "type": "function"
    },
    {
      "inputs": [
        {
          "internalType": "string",
          "name": "uri",
          "type": "string"
        }
      ],
      "name": "safeMint",
      "outputs": [],
      "stateMutability": "nonpayable",
      "type": "function"
    },
    {
      "inputs": [
        {
          "internalType": "address",
          "name": "from",
          "type": "address"
        },
        {
          "internalType": "address",
          "name": "to",
          "type": "address"
        },
        {
          "internalType": "uint256",
          "name": "tokenId",
          "type": "uint256"
        }
      ],
      "name": "safeTransferFrom",
      "outputs": [],
      "stateMutability": "nonpayable",
      "type": "function"
    },
    {
      "inputs": [
        {
          "internalType": "address",
          "name": "from",
          "type": "address"
        },
        {
          "internalType": "address",
          "name": "to",
          "type": "address"
        },
        {
          "internalType": "uint256",
          "name": "tokenId",
          "type": "uint256"
        },
        {
          "internalType": "bytes",
          "name": "_data",
          "type": "bytes"
        }
      ],
      "name": "safeTransferFrom",
      "outputs": [],
      "stateMutability": "nonpayable",
      "type": "function"
    },
    {
      "inputs": [
        {
          "internalType": "address",
          "name": "operator",
          "type": "address"
        },
        {
          "internalType": "bool",
          "name": "approved",
          "type": "bool"
        }
      ],
      "name": "setApprovalForAll",
      "outputs": [],
      "stateMutability": "nonpayable",
      "type": "function"
    },
    {
      "inputs": [
        {
          "internalType": "bytes4",
          "name": "interfaceId",
          "type": "bytes4"
        }
      ],
      "name": "supportsInterface",
      "outputs": [
        {
          "internalType": "bool",
          "name": "",
          "type": "bool"
        }
      ],
      "stateMutability": "view",
      "type": "function"
    },
    {
      "inputs": [],
      "name": "symbol",
      "outputs": [
        {
          "internalType": "string",
          "name": "",
          "type": "string"
        }
      ],
      "stateMutability": "view",
      "type": "function"
    },
    {
      "inputs": [
        {
          "internalType": "uint256",
          "name": "tokenId",
          "type": "uint256"
        }
      ],
      "name": "tokenURI",
      "outputs": [
        {
          "internalType": "string",
          "name": "",
          "type": "string"
        }
      ],
      "stateMutability": "view",
      "type": "function"
    },
    {
      "inputs": [
        {
          "internalType": "address",
          "name": "from",
          "type": "address"
        },
        {
          "internalType": "address",
          "name": "to",
          "type": "address"
        },
        {
          "internalType": "uint256",
          "name": "tokenId",
          "type": "uint256"
        }
      ],
      "name": "transferFrom",
      "outputs": [],
      "stateMutability": "nonpayable",
      "type": "function"
    },
    {
      "inputs": [
        {
          "internalType": "address",
          "name": "newOwner",
          "type": "address"
        }
      ],
      "name": "transferOwnership",
      "outputs": [],
      "stateMutability": "nonpayable",
      "type": "function"
    }
  ],
  "bytecode": "0x60806040523480156200001157600080fd5b5060405162001ccf38038062001ccf8339810160408190526200003491620001b3565b60408051808201825260068152655152436f646560d01b60208083019182528351808501909452600384526251524360e81b9084015281519192916200007d916000916200010d565b508051620000939060019060208401906200010d565b505050620000b0620000aa620000b760201b60201c565b620000bb565b5062000220565b3390565b600780546001600160a01b038381166001600160a01b0319831681179093556040519116919082907f8be0079c531659141344cd1fd0a4f28419497f9722a3daafe3b4186f6b6457e090600090a35050565b8280546200011b90620001e3565b90600052602060002090601f0160209004810192826200013f57600085556200018a565b82601f106200015a57805160ff19168380011785556200018a565b828001600101855582156200018a579182015b828111156200018a5782518255916020019190600101906200016d565b50620001989291506200019c565b5090565b5b808211156200019857600081556001016200019d565b600060208284031215620001c5578081fd5b81516001600160a01b0381168114620001dc578182fd5b9392505050565b600181811c90821680620001f857607f821691505b602082108114156200021a57634e487b7160e01b600052602260045260246000fd5b50919050565b611a9f80620002306000396000f3fe608060405234801561001057600080fd5b50600436106101165760003560e01c806370a08231116100a2578063a22cb46511610071578063a22cb46514610239578063b88d4fde1461024c578063c87b56dd1461025f578063e985e9c514610272578063f2fde38b146102ae57600080fd5b806370a08231146101f7578063715018a6146102185780638da5cb5b1461022057806395d89b411461023157600080fd5b806323b872dd116100e957806323b872dd1461019857806342842e0e146101ab57806342966c68146101be5780636352211e146101d1578063695850fb146101e457600080fd5b806301ffc9a71461011b57806306fdde0314610143578063081812fc14610158578063095ea7b314610183575b600080fd5b61012e61012936600461171f565b6102c1565b60405190151581526020015b60405180910390f35b61014b610313565b60405161013a919061184d565b61016b61016636600461179d565b6103a5565b6040516001600160a01b03909116815260200161013a565b6101966101913660046116f6565b610432565b005b6101966101a6366004611608565b610548565b6101966101b9366004611608565b61057a565b6101966101cc36600461179d565b610595565b61016b6101df36600461179d565b61060f565b6101966101f2366004611757565b610686565b61020a6102053660046115bc565b6106e3565b60405190815260200161013a565b61019661076a565b6007546001600160a01b031661016b565b61014b6107a0565b6101966102473660046116bc565b6107af565b61019661025a366004611643565b6107ba565b61014b61026d36600461179d565b6107f2565b61012e6102803660046115d6565b6001600160a01b03918216600090815260056020908152604080832093909416825291909152205460ff1690565b6101966102bc3660046115bc565b6107fd565b60006001600160e01b031982166380ac58cd60e01b14806102f257506001600160e01b03198216635b5e139f60e01b145b8061030d57506301ffc9a760e01b6001600160e01b03198316145b92915050565b606060008054610322906119a7565b80601f016020809104026020016040519081016040528092919081815260200182805461034e906119a7565b801561039b5780601f106103705761010080835404028352916020019161039b565b820191906000526020600020905b81548152906001019060200180831161037e57829003601f168201915b5050505050905090565b60006103b082610895565b6104165760405162461bcd60e51b815260206004820152602c60248201527f4552433732313a20617070726f76656420717565727920666f72206e6f6e657860448201526b34b9ba32b73a103a37b5b2b760a11b60648201526084015b60405180910390fd5b506000908152600460205260409020546001600160a01b031690565b600061043d8261060f565b9050806001600160a01b0316836001600160a01b031614156104ab5760405162461bcd60e51b815260206004820152602160248201527f4552433732313a20617070726f76616c20746f2063757272656e74206f776e656044820152603960f91b606482015260840161040d565b336001600160a01b03821614806104c757506104c78133610280565b6105395760405162461bcd60e51b815260206004820152603860248201527f4552433732313a20617070726f76652063616c6c6572206973206e6f74206f7760448201527f6e6572206e6f7220617070726f76656420666f7220616c6c0000000000000000606482015260840161040d565b61054383836108b2565b505050565b610553335b82610920565b61056f5760405162461bcd60e51b815260040161040d906118e7565b610543838383610a0a565b610543838383604051806020016040528060008152506107ba565b61059e3361054d565b6106035760405162461bcd60e51b815260206004820152603060248201527f4552433732314275726e61626c653a2063616c6c6572206973206e6f74206f7760448201526f1b995c881b9bdc88185c1c1c9bdd995960821b606482015260840161040d565b61060c81610baa565b50565b6000818152600260205260408120546001600160a01b03168061030d5760405162461bcd60e51b815260206004820152602960248201527f4552433732313a206f776e657220717565727920666f72206e6f6e657869737460448201526832b73a103a37b5b2b760b91b606482015260840161040d565b6007546001600160a01b031633146106b05760405162461bcd60e51b815260040161040d906118b2565b60006106bb60085490565b90506106cb600880546001019055565b6106d53382610bb3565b6106df8183610bcd565b5050565b60006001600160a01b03821661074e5760405162461bcd60e51b815260206004820152602a60248201527f4552433732313a2062616c616e636520717565727920666f7220746865207a65604482015269726f206164647265737360b01b606482015260840161040d565b506001600160a01b031660009081526003602052604090205490565b6007546001600160a01b031633146107945760405162461bcd60e51b815260040161040d906118b2565b61079e6000610c58565b565b606060018054610322906119a7565b6106df338383610caa565b6107c43383610920565b6107e05760405162461bcd60e51b815260040161040d906118e7565b6107ec84848484610d79565b50505050565b606061030d82610dac565b6007546001600160a01b031633146108275760405162461bcd60e51b815260040161040d906118b2565b6001600160a01b03811661088c5760405162461bcd60e51b815260206004820152602660248201527f4f776e61626c653a206e6577206f776e657220697320746865207a65726f206160448201526564647265737360d01b606482015260840161040d565b61060c81610c58565b6000908152600260205260409020546001600160a01b0316151590565b600081815260046020526040902080546001600160a01b0319166001600160a01b03841690811790915581906108e78261060f565b6001600160a01b03167f8c5be1e5ebec7d5bd14f71427d1e84f3dd0314c0f7b2291e5b200ac8c7c3b92560405160405180910390a45050565b600061092b82610895565b61098c5760405162461bcd60e51b815260206004820152602c60248201527f4552433732313a206f70657261746f7220717565727920666f72206e6f6e657860448201526b34b9ba32b73a103a37b5b2b760a11b606482015260840161040d565b60006109978361060f565b9050806001600160a01b0316846001600160a01b031614806109d25750836001600160a01b03166109c7846103a5565b6001600160a01b0316145b80610a0257506001600160a01b0380821660009081526005602090815260408083209388168352929052205460ff165b949350505050565b826001600160a01b0316610a1d8261060f565b6001600160a01b031614610a855760405162461bcd60e51b815260206004820152602960248201527f4552433732313a207472616e73666572206f6620746f6b656e2074686174206960448201526839903737ba1037bbb760b91b606482015260840161040d565b6001600160a01b038216610ae75760405162461bcd60e51b8152602060048201526024808201527f4552433732313a207472616e7366657220746f20746865207a65726f206164646044820152637265737360e01b606482015260840161040d565b610af26000826108b2565b6001600160a01b0383166000908152600360205260408120805460019290610b1b908490611964565b90915550506001600160a01b0382166000908152600360205260408120805460019290610b49908490611938565b909155505060008181526002602052604080822080546001600160a01b0319166001600160a01b0386811691821790925591518493918716917fddf252ad1be2c89b69c2b068fc378daa952ba7f163c4a11628f55a4df523b3ef91a4505050565b61060c81610f1b565b6106df828260405180602001604052806000815250610f5b565b610bd682610895565b610c395760405162461bcd60e51b815260206004820152602e60248201527f45524337323155524953746f726167653a2055524920736574206f66206e6f6e60448201526d32bc34b9ba32b73a103a37b5b2b760911b606482015260840161040d565b600082815260066020908152604090912082516105439284019061145b565b600780546001600160a01b038381166001600160a01b0319831681179093556040519116919082907f8be0079c531659141344cd1fd0a4f28419497f9722a3daafe3b4186f6b6457e090600090a35050565b816001600160a01b0316836001600160a01b03161415610d0c5760405162461bcd60e51b815260206004820152601960248201527f4552433732313a20617070726f766520746f2063616c6c657200000000000000604482015260640161040d565b6001600160a01b03838116600081815260056020908152604080832094871680845294825291829020805460ff191686151590811790915591519182527f17307eab39ab6107e8899845ad3d59bd9653f200f220920489ca2b5937696c31910160405180910390a3505050565b610d84848484610a0a565b610d9084848484610f8e565b6107ec5760405162461bcd60e51b815260040161040d90611860565b6060610db782610895565b610e1d5760405162461bcd60e51b815260206004820152603160248201527f45524337323155524953746f726167653a2055524920717565727920666f72206044820152703737b732bc34b9ba32b73a103a37b5b2b760791b606482015260840161040d565b60008281526006602052604081208054610e36906119a7565b80601f0160208091040260200160405190810160405280929190818152602001828054610e62906119a7565b8015610eaf5780601f10610e8457610100808354040283529160200191610eaf565b820191906000526020600020905b815481529060010190602001808311610e9257829003601f168201915b505050505090506000610ecd60408051602081019091526000815290565b9050805160001415610ee0575092915050565b815115610f12578082604051602001610efa9291906117e1565b60405160208183030381529060405292505050919050565b610a028461109b565b610f2481611173565b60008181526006602052604090208054610f3d906119a7565b15905061060c57600081815260066020526040812061060c916114df565b610f65838361120e565b610f726000848484610f8e565b6105435760405162461bcd60e51b815260040161040d90611860565b60006001600160a01b0384163b1561109057604051630a85bd0160e11b81526001600160a01b0385169063150b7a0290610fd2903390899088908890600401611810565b602060405180830381600087803b158015610fec57600080fd5b505af192505050801561101c575060408051601f3d908101601f191682019092526110199181019061173b565b60015b611076573d80801561104a576040519150601f19603f3d011682016040523d82523d6000602084013e61104f565b606091505b50805161106e5760405162461bcd60e51b815260040161040d90611860565b805181602001fd5b6001600160e01b031916630a85bd0160e11b149050610a02565b506001949350505050565b60606110a682610895565b61110a5760405162461bcd60e51b815260206004820152602f60248201527f4552433732314d657461646174613a2055524920717565727920666f72206e6f60448201526e3732bc34b9ba32b73a103a37b5b2b760891b606482015260840161040d565b600061112160408051602081019091526000815290565b90506000815111611141576040518060200160405280600081525061116c565b8061114b84611341565b60405160200161115c9291906117e1565b6040516020818303038152906040525b9392505050565b600061117e8261060f565b905061118b6000836108b2565b6001600160a01b03811660009081526003602052604081208054600192906111b4908490611964565b909155505060008281526002602052604080822080546001600160a01b0319169055518391906001600160a01b038416907fddf252ad1be2c89b69c2b068fc378daa952ba7f163c4a11628f55a4df523b3ef908390a45050565b6001600160a01b0382166112645760405162461bcd60e51b815260206004820181905260248201527f4552433732313a206d696e7420746f20746865207a65726f2061646472657373604482015260640161040d565b61126d81610895565b156112ba5760405162461bcd60e51b815260206004820152601c60248201527f4552433732313a20746f6b656e20616c7265616479206d696e74656400000000604482015260640161040d565b6001600160a01b03821660009081526003602052604081208054600192906112e3908490611938565b909155505060008181526002602052604080822080546001600160a01b0319166001600160a01b03861690811790915590518392907fddf252ad1be2c89b69c2b068fc378daa952ba7f163c4a11628f55a4df523b3ef908290a45050565b6060816113655750506040805180820190915260018152600360fc1b602082015290565b8160005b811561138f5780611379816119e2565b91506113889050600a83611950565b9150611369565b60008167ffffffffffffffff8111156113b857634e487b7160e01b600052604160045260246000fd5b6040519080825280601f01601f1916602001820160405280156113e2576020820181803683370190505b5090505b8415610a02576113f7600183611964565b9150611404600a866119fd565b61140f906030611938565b60f81b81838151811061143257634e487b7160e01b600052603260045260246000fd5b60200101906001600160f81b031916908160001a905350611454600a86611950565b94506113e6565b828054611467906119a7565b90600052602060002090601f01602090048101928261148957600085556114cf565b82601f106114a257805160ff19168380011785556114cf565b828001600101855582156114cf579182015b828111156114cf5782518255916020019190600101906114b4565b506114db929150611515565b5090565b5080546114eb906119a7565b6000825580601f106114fb575050565b601f01602090049060005260206000209081019061060c91905b5b808211156114db5760008155600101611516565b600067ffffffffffffffff8084111561154557611545611a3d565b604051601f8501601f19908116603f0116810190828211818310171561156d5761156d611a3d565b8160405280935085815286868601111561158657600080fd5b858560208301376000602087830101525050509392505050565b80356001600160a01b03811681146115b757600080fd5b919050565b6000602082840312156115cd578081fd5b61116c826115a0565b600080604083850312156115e8578081fd5b6115f1836115a0565b91506115ff602084016115a0565b90509250929050565b60008060006060848603121561161c578081fd5b611625846115a0565b9250611633602085016115a0565b9150604084013590509250925092565b60008060008060808587031215611658578081fd5b611661856115a0565b935061166f602086016115a0565b925060408501359150606085013567ffffffffffffffff811115611691578182fd5b8501601f810187136116a1578182fd5b6116b08782356020840161152a565b91505092959194509250565b600080604083850312156116ce578182fd5b6116d7836115a0565b9150602083013580151581146116eb578182fd5b809150509250929050565b60008060408385031215611708578182fd5b611711836115a0565b946020939093013593505050565b600060208284031215611730578081fd5b813561116c81611a53565b60006020828403121561174c578081fd5b815161116c81611a53565b600060208284031215611768578081fd5b813567ffffffffffffffff81111561177e578182fd5b8201601f8101841361178e578182fd5b610a028482356020840161152a565b6000602082840312156117ae578081fd5b5035919050565b600081518084526117cd81602086016020860161197b565b601f01601f19169290920160200192915050565b600083516117f381846020880161197b565b83519083019061180781836020880161197b565b01949350505050565b6001600160a01b0385811682528416602082015260408101839052608060608201819052600090611843908301846117b5565b9695505050505050565b60208152600061116c60208301846117b5565b60208082526032908201527f4552433732313a207472616e7366657220746f206e6f6e20455243373231526560408201527131b2b4bb32b91034b6b83632b6b2b73a32b960711b606082015260800190565b6020808252818101527f4f776e61626c653a2063616c6c6572206973206e6f7420746865206f776e6572604082015260600190565b60208082526031908201527f4552433732313a207472616e736665722063616c6c6572206973206e6f74206f6040820152701ddb995c881b9bdc88185c1c1c9bdd9959607a1b606082015260800190565b6000821982111561194b5761194b611a11565b500190565b60008261195f5761195f611a27565b500490565b60008282101561197657611976611a11565b500390565b60005b8381101561199657818101518382015260200161197e565b838111156107ec5750506000910152565b600181811c908216806119bb57607f821691505b602082108114156119dc57634e487b7160e01b600052602260045260246000fd5b50919050565b60006000198214156119f6576119f6611a11565b5060010190565b600082611a0c57611a0c611a27565b500690565b634e487b7160e01b600052601160045260246000fd5b634e487b7160e01b600052601260045260246000fd5b634e487b7160e01b600052604160045260246000fd5b6001600160e01b03198116811461060c57600080fdfea264697066735822122037b7b5ba4b2e68c8a1ae2bb3da86e49e0e1a04058e78d9ac74ddae179d59107564736f6c63430008040033",
  "linkReferences": {},
  "deployedLinkReferences": {}
}