{
  "_format": "hh-sol-artifact-1",
  "contractName": "Market",
  "sourceName": "contracts/Market.sol",
  "abi": [
    {
      "inputs": [],
      "stateMutability": "nonpayable",
      "type": "constructor"
    },
    {
      "anonymous": false,
      "inputs": [
        {
          "indexed": true,
          "internalType": "uint256",
          "name": "itemId",
          "type": "uint256"
        },
        {
          "indexed": true,
          "internalType": "address",
          "name": "nftContract",
          "type": "address"
        },
        {
          "indexed": true,
          "internalType": "uint256",
          "name": "tokenId",
          "type": "uint256"
        },
        {
          "indexed": false,
          "internalType": "address",
          "name": "seller",
          "type": "address"
        },
        {
          "indexed": false,
          "internalType": "address",
          "name": "owner",
          "type": "address"
        },
        {
          "indexed": false,
          "internalType": "uint256",
          "name": "price",
          "type": "uint256"
        },
        {
          "indexed": false,
          "internalType": "bool",
          "name": "sold",
          "type": "bool"
        }
      ],
      "name": "MarketItemCreated",
      "type": "event"
    },
    {
      "inputs": [
        {
          "internalType": "address",
          "name": "nftContract",
          "type": "address"
        },
        {
          "internalType": "uint256",
          "name": "tokenId",
          "type": "uint256"
        },
        {
          "internalType": "uint256",
          "name": "price",
          "type": "uint256"
        }
      ],
      "name": "createMarketItem",
      "outputs": [],
      "stateMutability": "payable",
      "type": "function"
    },
    {
      "inputs": [
        {
          "internalType": "address",
          "name": "nftContract",
          "type": "address"
        },
        {
          "internalType": "uint256",
          "name": "itemId",
          "type": "uint256"
        }
      ],
      "name": "createMarketSale",
      "outputs": [],
      "stateMutability": "payable",
      "type": "function"
    },
    {
      "inputs": [],
      "name": "fetchItemsCreated",
      "outputs": [
        {
          "components": [
            {
              "internalType": "uint256",
              "name": "itemId",
              "type": "uint256"
            },
            {
              "internalType": "address",
              "name": "nftContract",
              "type": "address"
            },
            {
              "internalType": "uint256",
              "name": "tokenId",
              "type": "uint256"
            },
            {
              "internalType": "address payable",
              "name": "seller",
              "type": "address"
            },
            {
              "internalType": "address payable",
              "name": "owner",
              "type": "address"
            },
            {
              "internalType": "uint256",
              "name": "price",
              "type": "uint256"
            },
            {
              "internalType": "bool",
              "name": "sold",
              "type": "bool"
            }
          ],
          "internalType": "struct Market.MarketItem[]",
          "name": "",
          "type": "tuple[]"
        }
      ],
      "stateMutability": "view",
      "type": "function"
    },
    {
      "inputs": [],
      "name": "fetchMarketItems",
      "outputs": [
        {
          "components": [
            {
              "internalType": "uint256",
              "name": "itemId",
              "type": "uint256"
            },
            {
              "internalType": "address",
              "name": "nftContract",
              "type": "address"
            },
            {
              "internalType": "uint256",
              "name": "tokenId",
              "type": "uint256"
            },
            {
              "internalType": "address payable",
              "name": "seller",
              "type": "address"
            },
            {
              "internalType": "address payable",
              "name": "owner",
              "type": "address"
            },
            {
              "internalType": "uint256",
              "name": "price",
              "type": "uint256"
            },
            {
              "internalType": "bool",
              "name": "sold",
              "type": "bool"
            }
          ],
          "internalType": "struct Market.MarketItem[]",
          "name": "",
          "type": "tuple[]"
        }
      ],
      "stateMutability": "view",
      "type": "function"
    },
    {
      "inputs": [],
      "name": "fetchMyNFTs",
      "outputs": [
        {
          "components": [
            {
              "internalType": "uint256",
              "name": "itemId",
              "type": "uint256"
            },
            {
              "internalType": "address",
              "name": "nftContract",
              "type": "address"
            },
            {
              "internalType": "uint256",
              "name": "tokenId",
              "type": "uint256"
            },
            {
              "internalType": "address payable",
              "name": "seller",
              "type": "address"
            },
            {
              "internalType": "address payable",
              "name": "owner",
              "type": "address"
            },
            {
              "internalType": "uint256",
              "name": "price",
              "type": "uint256"
            },
            {
              "internalType": "bool",
              "name": "sold",
              "type": "bool"
            }
          ],
          "internalType": "struct Market.MarketItem[]",
          "name": "",
          "type": "tuple[]"
        }
      ],
      "stateMutability": "view",
      "type": "function"
    }
  ],
  "bytecode": "0x60806040526658d15e1762800060045534801561001b57600080fd5b506001600055600380546001600160a01b03191633179055610cd9806100426000396000f3fe60806040526004361061004a5760003560e01c80630f08efe01461004f578063202e37401461007a57806358eb2df51461008f578063c23b139e146100a4578063f064c32e146100b7575b600080fd5b34801561005b57600080fd5b506100646100cc565b6040516100719190610baf565b60405180910390f35b34801561008657600080fd5b50610064610274565b6100a261009d366004610b7d565b61045a565b005b6100a26100b2366004610b54565b6106fa565b3480156100c357600080fd5b50610064610916565b606060006100d960015490565b905060006100e660025490565b6001546100f39190610c5b565b90506000808267ffffffffffffffff81111561011f57634e487b7160e01b600052604160045260246000fd5b60405190808252806020026020018201604052801561015857816020015b610145610afc565b81526020019060019003908161013d5790505b50905060005b8481101561026b576000600581610176846001610c43565b81526020810191909152604001600020600401546001600160a01b031614156102595760006101a6826001610c43565b600081815260056020818152604092839020835160e0810185528154815260018201546001600160a01b0390811693820193909352600282015494810194909452600381015482166060850152600481015490911660808401529081015460a0830152600681015460ff16151560c083015285519293509185908790811061023e57634e487b7160e01b600052603260045260246000fd5b6020908102919091010152610254600186610c43565b945050505b8061026381610c72565b91505061015e565b50949350505050565b6060600061028160015490565b905060008060005b838110156102e45733600560006102a1846001610c43565b81526020810191909152604001600020600401546001600160a01b031614156102d2576102cf600184610c43565b92505b806102dc81610c72565b915050610289565b5060008267ffffffffffffffff81111561030e57634e487b7160e01b600052604160045260246000fd5b60405190808252806020026020018201604052801561034757816020015b610334610afc565b81526020019060019003908161032c5790505b50905060005b8481101561026b573360056000610365846001610c43565b81526020810191909152604001600020600401546001600160a01b03161415610448576000610395826001610c43565b600081815260056020818152604092839020835160e0810185528154815260018201546001600160a01b0390811693820193909352600282015494810194909452600381015482166060850152600481015490911660808401529081015460a0830152600681015460ff16151560c083015285519293509185908790811061042d57634e487b7160e01b600052603260045260246000fd5b6020908102919091010152610443600186610c43565b945050505b8061045281610c72565b91505061034d565b600260005414156104b25760405162461bcd60e51b815260206004820152601f60248201527f5265656e7472616e637947756172643a207265656e7472616e742063616c6c0060448201526064015b60405180910390fd5b6002600055806105045760405162461bcd60e51b815260206004820152601c60248201527f5072696365206d757374206265206174206c656173742031207765690000000060448201526064016104a9565b60045434146105615760405162461bcd60e51b8152602060048201526024808201527f5072696365206d75737420626520657175616c20746f206c697374696e6720706044820152637269636560e01b60648201526084016104a9565b61056f600180546001019055565b600061057a60015490565b6040805160e0810182528281526001600160a01b0387811660208084018281528486018a8152336060870181815260006080890181815260a08a018e815260c08b018381528d8452600598899052928c90209a518b55955160018b018054918b166001600160a01b0319928316179055945160028b0155915160038a018054918a1691861691909117905590516004808a01805492909916919094161790965591519286019290925592516006909401805494151560ff199095169490941790935592516323b872dd60e01b81529182015230602482015260448101869052919250906323b872dd90606401600060405180830381600087803b15801561068057600080fd5b505af1158015610694573d6000803e3d6000fd5b505060408051338152600060208201819052818301879052606082015290518693506001600160a01b038816925084917f045dfa01dcba2b36aba1d3dc4a874f4b0c5d2fbeb8d2c4b34a7d88c8d8f929d1919081900360800190a4505060016000555050565b6002600054141561074d5760405162461bcd60e51b815260206004820152601f60248201527f5265656e7472616e637947756172643a207265656e7472616e742063616c6c0060448201526064016104a9565b60026000818155828152600560208190526040909120908101549101543482146107e1576040805162461bcd60e51b81526020600482015260248101919091527f506c65617365207375626d6974207468652061736b696e67207072696365206960448201527f6e206f7264657220746f20636f6d706c6574652074686520707572636861736560648201526084016104a9565b6000838152600560205260408082206003015490516001600160a01b03909116913480156108fc02929091818181858888f19350505050158015610829573d6000803e3d6000fd5b506040516323b872dd60e01b8152306004820152336024820152604481018290526001600160a01b038516906323b872dd90606401600060405180830381600087803b15801561087857600080fd5b505af115801561088c573d6000803e3d6000fd5b50505060008481526005602052604090206004810180546001600160a01b03191633179055600601805460ff19166001179055506108ce600280546001019055565b6003546004546040516001600160a01b039092169181156108fc0291906000818181858888f1935050505015801561090a573d6000803e3d6000fd5b50506001600055505050565b6060600061092360015490565b905060008060005b83811015610986573360056000610943846001610c43565b81526020810191909152604001600020600301546001600160a01b0316141561097457610971600184610c43565b92505b8061097e81610c72565b91505061092b565b5060008267ffffffffffffffff8111156109b057634e487b7160e01b600052604160045260246000fd5b6040519080825280602002602001820160405280156109e957816020015b6109d6610afc565b8152602001906001900390816109ce5790505b50905060005b8481101561026b573360056000610a07846001610c43565b81526020810191909152604001600020600301546001600160a01b03161415610aea576000610a37826001610c43565b600081815260056020818152604092839020835160e0810185528154815260018201546001600160a01b0390811693820193909352600282015494810194909452600381015482166060850152600481015490911660808401529081015460a0830152600681015460ff16151560c0830152855192935091859087908110610acf57634e487b7160e01b600052603260045260246000fd5b6020908102919091010152610ae5600186610c43565b945050505b80610af481610c72565b9150506109ef565b6040805160e081018252600080825260208201819052918101829052606081018290526080810182905260a0810182905260c081019190915290565b80356001600160a01b0381168114610b4f57600080fd5b919050565b60008060408385031215610b66578182fd5b610b6f83610b38565b946020939093013593505050565b600080600060608486031215610b91578081fd5b610b9a84610b38565b95602085013595506040909401359392505050565b602080825282518282018190526000919060409081850190868401855b82811015610c3657815180518552868101516001600160a01b039081168887015286820151878701526060808301518216908701526080808301519091169086015260a0808201519086015260c09081015115159085015260e09093019290850190600101610bcc565b5091979650505050505050565b60008219821115610c5657610c56610c8d565b500190565b600082821015610c6d57610c6d610c8d565b500390565b6000600019821415610c8657610c86610c8d565b5060010190565b634e487b7160e01b600052601160045260246000fdfea26469706673582212207e8cc2d4b4a1a13aaf1fd2670fbb2ad2f7622455f021e94898b030f34e49054064736f6c63430008040033",
  "linkReferences": {},
  "deployedLinkReferences": {}
}