{
  "_format": "hh-sol-artifact-1",
  "contractName": "Market",
  "sourceName": "contracts/Market.sol",
  "abi": [
    {
      "inputs": [
        {
          "internalType": "address",
          "name": "_priceFeed",
          "type": "address"
        }
      ],
      "stateMutability": "nonpayable",
      "type": "constructor"
    },
    {
      "anonymous": false,
      "inputs": [
        {
          "indexed": true,
          "internalType": "uint256",
          "name": "itemId",
          "type": "uint256"
        },
        {
          "indexed": true,
          "internalType": "address",
          "name": "nftContract",
          "type": "address"
        },
        {
          "indexed": true,
          "internalType": "uint256",
          "name": "tokenId",
          "type": "uint256"
        },
        {
          "indexed": false,
          "internalType": "address",
          "name": "seller",
          "type": "address"
        },
        {
          "indexed": false,
          "internalType": "address",
          "name": "owner",
          "type": "address"
        },
        {
          "indexed": false,
          "internalType": "uint256",
          "name": "price",
          "type": "uint256"
        },
        {
          "indexed": false,
          "internalType": "bool",
          "name": "sold",
          "type": "bool"
        }
      ],
      "name": "MarketItemCreated",
      "type": "event"
    },
    {
      "inputs": [
        {
          "internalType": "address",
          "name": "nftContract",
          "type": "address"
        },
        {
          "internalType": "uint256",
          "name": "tokenId",
          "type": "uint256"
        },
        {
          "internalType": "uint256",
          "name": "price",
          "type": "uint256"
        }
      ],
      "name": "createMarketItem",
      "outputs": [],
      "stateMutability": "payable",
      "type": "function"
    },
    {
      "inputs": [
        {
          "internalType": "address",
          "name": "nftContract",
          "type": "address"
        },
        {
          "internalType": "uint256",
          "name": "itemId",
          "type": "uint256"
        }
      ],
      "name": "createMarketSale",
      "outputs": [],
      "stateMutability": "payable",
      "type": "function"
    },
    {
      "inputs": [],
      "name": "fetchItemsCreated",
      "outputs": [
        {
          "components": [
            {
              "internalType": "uint256",
              "name": "itemId",
              "type": "uint256"
            },
            {
              "internalType": "address",
              "name": "nftContract",
              "type": "address"
            },
            {
              "internalType": "uint256",
              "name": "tokenId",
              "type": "uint256"
            },
            {
              "internalType": "address payable",
              "name": "seller",
              "type": "address"
            },
            {
              "internalType": "address payable",
              "name": "owner",
              "type": "address"
            },
            {
              "internalType": "uint256",
              "name": "price",
              "type": "uint256"
            },
            {
              "internalType": "bool",
              "name": "sold",
              "type": "bool"
            }
          ],
          "internalType": "struct Market.MarketItem[]",
          "name": "",
          "type": "tuple[]"
        }
      ],
      "stateMutability": "view",
      "type": "function"
    },
    {
      "inputs": [],
      "name": "fetchMarketItems",
      "outputs": [
        {
          "components": [
            {
              "internalType": "uint256",
              "name": "itemId",
              "type": "uint256"
            },
            {
              "internalType": "address",
              "name": "nftContract",
              "type": "address"
            },
            {
              "internalType": "uint256",
              "name": "tokenId",
              "type": "uint256"
            },
            {
              "internalType": "address payable",
              "name": "seller",
              "type": "address"
            },
            {
              "internalType": "address payable",
              "name": "owner",
              "type": "address"
            },
            {
              "internalType": "uint256",
              "name": "price",
              "type": "uint256"
            },
            {
              "internalType": "bool",
              "name": "sold",
              "type": "bool"
            }
          ],
          "internalType": "struct Market.MarketItem[]",
          "name": "",
          "type": "tuple[]"
        }
      ],
      "stateMutability": "view",
      "type": "function"
    },
    {
      "inputs": [],
      "name": "fetchMyNFTs",
      "outputs": [
        {
          "components": [
            {
              "internalType": "uint256",
              "name": "itemId",
              "type": "uint256"
            },
            {
              "internalType": "address",
              "name": "nftContract",
              "type": "address"
            },
            {
              "internalType": "uint256",
              "name": "tokenId",
              "type": "uint256"
            },
            {
              "internalType": "address payable",
              "name": "seller",
              "type": "address"
            },
            {
              "internalType": "address payable",
              "name": "owner",
              "type": "address"
            },
            {
              "internalType": "uint256",
              "name": "price",
              "type": "uint256"
            },
            {
              "internalType": "bool",
              "name": "sold",
              "type": "bool"
            }
          ],
          "internalType": "struct Market.MarketItem[]",
          "name": "",
          "type": "tuple[]"
        }
      ],
      "stateMutability": "view",
      "type": "function"
    },
    {
      "inputs": [],
      "name": "getLatestPrice",
      "outputs": [
        {
          "internalType": "uint256",
          "name": "",
          "type": "uint256"
        }
      ],
      "stateMutability": "view",
      "type": "function"
    },
    {
      "inputs": [],
      "name": "getListingPrice",
      "outputs": [
        {
          "internalType": "uint256",
          "name": "",
          "type": "uint256"
        }
      ],
      "stateMutability": "view",
      "type": "function"
    }
  ],
  "bytecode": "0x60806040526658d15e1762800060055534801561001b57600080fd5b50604051610f1e380380610f1e83398101604081905261003a91610072565b600160005560048054336001600160a01b031991821617909155600380549091166001600160a01b03929092169190911790556100a0565b600060208284031215610083578081fd5b81516001600160a01b0381168114610099578182fd5b9392505050565b610e6f806100af6000396000f3fe6080604052600436106100705760003560e01c806358eb2df51161004e57806358eb2df5146100d45780638e15f473146100e9578063c23b139e146100fe578063f064c32e1461011157600080fd5b80630f08efe01461007557806312e85585146100a0578063202e3740146100bf575b600080fd5b34801561008157600080fd5b5061008a610126565b6040516100979190610d26565b60405180910390f35b3480156100ac57600080fd5b506005545b604051908152602001610097565b3480156100cb57600080fd5b5061008a6102ce565b6100e76100e2366004610ca5565b6104b4565b005b3480156100f557600080fd5b506100b1610752565b6100e761010c366004610c7c565b610809565b34801561011d57600080fd5b5061008a610a24565b6060600061013360015490565b9050600061014060025490565b60015461014d9190610df1565b90506000808267ffffffffffffffff81111561017957634e487b7160e01b600052604160045260246000fd5b6040519080825280602002602001820160405280156101b257816020015b61019f610c0a565b8152602001906001900390816101975790505b50905060005b848110156102c55760006006816101d0846001610dba565b81526020810191909152604001600020600401546001600160a01b031614156102b3576000610200826001610dba565b600081815260066020818152604092839020835160e0810185528154815260018201546001600160a01b039081169382019390935260028201549481019490945260038101548216606085015260048101549091166080840152600581015460a08401529081015460ff16151560c083015285519293509185908790811061029857634e487b7160e01b600052603260045260246000fd5b60209081029190910101526102ae600186610dba565b945050505b806102bd81610e08565b9150506101b8565b50949350505050565b606060006102db60015490565b905060008060005b8381101561033e5733600660006102fb846001610dba565b81526020810191909152604001600020600401546001600160a01b0316141561032c57610329600184610dba565b92505b8061033681610e08565b9150506102e3565b5060008267ffffffffffffffff81111561036857634e487b7160e01b600052604160045260246000fd5b6040519080825280602002602001820160405280156103a157816020015b61038e610c0a565b8152602001906001900390816103865790505b50905060005b848110156102c55733600660006103bf846001610dba565b81526020810191909152604001600020600401546001600160a01b031614156104a25760006103ef826001610dba565b600081815260066020818152604092839020835160e0810185528154815260018201546001600160a01b039081169382019390935260028201549481019490945260038101548216606085015260048101549091166080840152600581015460a08401529081015460ff16151560c083015285519293509185908790811061048757634e487b7160e01b600052603260045260246000fd5b602090810291909101015261049d600186610dba565b945050505b806104ac81610e08565b9150506103a7565b6002600054141561050c5760405162461bcd60e51b815260206004820152601f60248201527f5265656e7472616e637947756172643a207265656e7472616e742063616c6c0060448201526064015b60405180910390fd5b60026000558061055e5760405162461bcd60e51b815260206004820152601c60248201527f5072696365206d757374206265206174206c65617374203120776569000000006044820152606401610503565b60055434146105bb5760405162461bcd60e51b8152602060048201526024808201527f5072696365206d75737420626520657175616c20746f206c697374696e6720706044820152637269636560e01b6064820152608401610503565b6105c9600180546001019055565b60006105d460015490565b6040805160e0810182528281526001600160a01b0387811660208084018281528486018a8152336060870181815260006080890181815260a08a018e815260c08b018381528d8452600698899052928c90209a518b55955160018b0180546001600160a01b0319908116928c16929092179055945160028b0155915160038a0180548616918a1691909117905590516004808a0180549095169190981617909255915160058701555194909101805460ff19169415159490941790935592516323b872dd60e01b81529081019190915230602482015260448101869052919250906323b872dd90606401600060405180830381600087803b1580156106d857600080fd5b505af11580156106ec573d6000803e3d6000fd5b505060408051338152600060208201819052818301879052606082015290518693506001600160a01b038816925084917f045dfa01dcba2b36aba1d3dc4a874f4b0c5d2fbeb8d2c4b34a7d88c8d8f929d1919081900360800190a4505060016000555050565b600080600080600080600360009054906101000a90046001600160a01b03166001600160a01b031663feaf968c6040518163ffffffff1660e01b815260040160a06040518083038186803b1580156107a957600080fd5b505afa1580156107bd573d6000803e3d6000fd5b505050506040513d601f19601f820116820180604052508101906107e19190610cd7565b945094509450945094506000846402540be4006107fe9190610dd2565b979650505050505050565b6002600054141561085c5760405162461bcd60e51b815260206004820152601f60248201527f5265656e7472616e637947756172643a207265656e7472616e742063616c6c006044820152606401610503565b6002600081815582815260066020526040902060058101549101543482146108ee576040805162461bcd60e51b81526020600482015260248101919091527f506c65617365207375626d6974207468652061736b696e67207072696365206960448201527f6e206f7264657220746f20636f6d706c657465207468652070757263686173656064820152608401610503565b6000838152600660205260408082206003015490516001600160a01b03909116913480156108fc02929091818181858888f19350505050158015610936573d6000803e3d6000fd5b506040516323b872dd60e01b8152306004820152336024820152604481018290526001600160a01b038516906323b872dd90606401600060405180830381600087803b15801561098557600080fd5b505af1158015610999573d6000803e3d6000fd5b50505060008481526006602081905260409091206004810180546001600160a01b0319163317905501805460ff19166001179055506109dc600280546001019055565b6004546005546040516001600160a01b039092169181156108fc0291906000818181858888f19350505050158015610a18573d6000803e3d6000fd5b50506001600055505050565b60606000610a3160015490565b905060008060005b83811015610a94573360066000610a51846001610dba565b81526020810191909152604001600020600301546001600160a01b03161415610a8257610a7f600184610dba565b92505b80610a8c81610e08565b915050610a39565b5060008267ffffffffffffffff811115610abe57634e487b7160e01b600052604160045260246000fd5b604051908082528060200260200182016040528015610af757816020015b610ae4610c0a565b815260200190600190039081610adc5790505b50905060005b848110156102c5573360066000610b15846001610dba565b81526020810191909152604001600020600301546001600160a01b03161415610bf8576000610b45826001610dba565b600081815260066020818152604092839020835160e0810185528154815260018201546001600160a01b039081169382019390935260028201549481019490945260038101548216606085015260048101549091166080840152600581015460a08401529081015460ff16151560c0830152855192935091859087908110610bdd57634e487b7160e01b600052603260045260246000fd5b6020908102919091010152610bf3600186610dba565b945050505b80610c0281610e08565b915050610afd565b6040805160e081018252600080825260208201819052918101829052606081018290526080810182905260a0810182905260c081019190915290565b80356001600160a01b0381168114610c5d57600080fd5b919050565b805169ffffffffffffffffffff81168114610c5d57600080fd5b60008060408385031215610c8e578182fd5b610c9783610c46565b946020939093013593505050565b600080600060608486031215610cb9578081fd5b610cc284610c46565b95602085013595506040909401359392505050565b600080600080600060a08688031215610cee578081fd5b610cf786610c62565b9450602086015193506040860151925060608601519150610d1a60808701610c62565b90509295509295909350565b602080825282518282018190526000919060409081850190868401855b82811015610dad57815180518552868101516001600160a01b039081168887015286820151878701526060808301518216908701526080808301519091169086015260a0808201519086015260c09081015115159085015260e09093019290850190600101610d43565b5091979650505050505050565b60008219821115610dcd57610dcd610e23565b500190565b6000816000190483118215151615610dec57610dec610e23565b500290565b600082821015610e0357610e03610e23565b500390565b6000600019821415610e1c57610e1c610e23565b5060010190565b634e487b7160e01b600052601160045260246000fdfea264697066735822122075fe8bc12af55afa374a5b56f97247aa73fd49cee2286b1ffd6cbcb970fdab4c64736f6c63430008040033",
  "linkReferences": {},
  "deployedLinkReferences": {}
}